{
  "_format": "hh-sol-artifact-1",
  "contractName": "StakeEth",
  "sourceName": "contracts/stakeEther.sol",
  "abi": [
    {
      "inputs": [
        {
          "internalType": "uint256",
          "name": "_withdrawDeadline",
          "type": "uint256"
        },
        {
          "internalType": "uint256",
          "name": "_rewardRate",
          "type": "uint256"
        }
      ],
      "stateMutability": "nonpayable",
      "type": "constructor"
    },
    {
      "anonymous": false,
      "inputs": [
        {
          "indexed": true,
          "internalType": "address",
          "name": "owner",
          "type": "address"
        },
        {
          "indexed": false,
          "internalType": "uint256",
          "name": "amount",
          "type": "uint256"
        }
      ],
      "name": "stakeSuccess",
      "type": "event"
    },
    {
      "anonymous": false,
      "inputs": [
        {
          "indexed": true,
          "internalType": "uint256",
          "name": "amount",
          "type": "uint256"
        }
      ],
      "name": "withdrawSuccess",
      "type": "event"
    },
    {
      "inputs": [
        {
          "internalType": "address",
          "name": "",
          "type": "address"
        }
      ],
      "name": "balances",
      "outputs": [
        {
          "internalType": "uint256",
          "name": "",
          "type": "uint256"
        }
      ],
      "stateMutability": "view",
      "type": "function"
    },
    {
      "inputs": [],
      "name": "depositTime",
      "outputs": [
        {
          "internalType": "uint256",
          "name": "",
          "type": "uint256"
        }
      ],
      "stateMutability": "view",
      "type": "function"
    },
    {
      "inputs": [],
      "name": "getBalance",
      "outputs": [
        {
          "internalType": "uint256",
          "name": "",
          "type": "uint256"
        }
      ],
      "stateMutability": "view",
      "type": "function"
    },
    {
      "inputs": [],
      "name": "getContractBalance",
      "outputs": [
        {
          "internalType": "uint256",
          "name": "",
          "type": "uint256"
        }
      ],
      "stateMutability": "view",
      "type": "function"
    },
    {
      "inputs": [],
      "name": "owner",
      "outputs": [
        {
          "internalType": "address",
          "name": "",
          "type": "address"
        }
      ],
      "stateMutability": "view",
      "type": "function"
    },
    {
      "inputs": [],
      "name": "rewardRate",
      "outputs": [
        {
          "internalType": "uint256",
          "name": "",
          "type": "uint256"
        }
      ],
      "stateMutability": "view",
      "type": "function"
    },
    {
      "inputs": [],
      "name": "stake",
      "outputs": [],
      "stateMutability": "payable",
      "type": "function"
    },
    {
      "inputs": [
        {
          "internalType": "address",
          "name": "",
          "type": "address"
        }
      ],
      "name": "timeOfDeposit",
      "outputs": [
        {
          "internalType": "uint256",
          "name": "",
          "type": "uint256"
        }
      ],
      "stateMutability": "view",
      "type": "function"
    },
    {
      "inputs": [
        {
          "internalType": "uint256",
          "name": "_amount",
          "type": "uint256"
        }
      ],
      "name": "withdraw",
      "outputs": [
        {
          "internalType": "uint256",
          "name": "",
          "type": "uint256"
        }
      ],
      "stateMutability": "nonpayable",
      "type": "function"
    },
    {
      "inputs": [],
      "name": "withdrawalTime",
      "outputs": [
        {
          "internalType": "uint256",
          "name": "",
          "type": "uint256"
        }
      ],
      "stateMutability": "view",
      "type": "function"
    },
    {
      "inputs": [],
      "name": "withdrawalTimeLeft",
      "outputs": [
        {
          "internalType": "uint256",
          "name": "",
          "type": "uint256"
        }
      ],
      "stateMutability": "view",
      "type": "function"
    }
  ],
  "bytecode": "0x60806040523480156200001157600080fd5b5060405162000e9b38038062000e9b8339818101604052810190620000379190620000f0565b42600081905550603c826200004d919062000166565b426200005a9190620001b1565b6001819055508060028190555033600360006101000a81548173ffffffffffffffffffffffffffffffffffffffff021916908373ffffffffffffffffffffffffffffffffffffffff1602179055505050620001ec565b600080fd5b6000819050919050565b620000ca81620000b5565b8114620000d657600080fd5b50565b600081519050620000ea81620000bf565b92915050565b600080604083850312156200010a5762000109620000b0565b5b60006200011a85828601620000d9565b92505060206200012d85828601620000d9565b9150509250929050565b7f4e487b7100000000000000000000000000000000000000000000000000000000600052601160045260246000fd5b60006200017382620000b5565b91506200018083620000b5565b92508282026200019081620000b5565b91508282048414831517620001aa57620001a962000137565b5b5092915050565b6000620001be82620000b5565b9150620001cb83620000b5565b9250828201905080821115620001e657620001e562000137565b5b92915050565b610c9f80620001fc6000396000f3fe60806040526004361061009c5760003560e01c80635e8a626e116100645780635e8a626e1461017b5780636f9fb98a146101a65780637b0a47ee146101d1578063820710d6146101fc5780638da5cb5b14610239578063f7894176146102645761009c565b806312065fe0146100a157806327e235e3146100cc5780632e1a7d4d14610109578063389eb9f9146101465780633a4b66f114610171575b600080fd5b3480156100ad57600080fd5b506100b661028f565b6040516100c39190610835565b60405180910390f35b3480156100d857600080fd5b506100f360048036038101906100ee91906108b3565b6102d6565b6040516101009190610835565b60405180910390f35b34801561011557600080fd5b50610130600480360381019061012b919061090c565b6102ee565b60405161013d9190610835565b60405180910390f35b34801561015257600080fd5b5061015b6105b8565b6040516101689190610835565b60405180910390f35b6101796105be565b005b34801561018757600080fd5b506101906107a2565b60405161019d9190610835565b60405180910390f35b3480156101b257600080fd5b506101bb6107a8565b6040516101c89190610835565b60405180910390f35b3480156101dd57600080fd5b506101e66107b0565b6040516101f39190610835565b60405180910390f35b34801561020857600080fd5b50610223600480360381019061021e91906108b3565b6107b6565b6040516102309190610835565b60405180910390f35b34801561024557600080fd5b5061024e6107ce565b60405161025b9190610948565b60405180910390f35b34801561027057600080fd5b506102796107f4565b6040516102869190610835565b60405180910390f35b6000600460003373ffffffffffffffffffffffffffffffffffffffff1673ffffffffffffffffffffffffffffffffffffffff16815260200190815260200160002054905090565b60046020528060005260406000206000915090505481565b60003373ffffffffffffffffffffffffffffffffffffffff16600360009054906101000a900473ffffffffffffffffffffffffffffffffffffffff1673ffffffffffffffffffffffffffffffffffffffff161461034a57600080fd5b600073ffffffffffffffffffffffffffffffffffffffff163373ffffffffffffffffffffffffffffffffffffffff16036103b9576040517f08c379a00000000000000000000000000000000000000000000000000000000081526004016103b0906109c0565b60405180910390fd5b81600460003373ffffffffffffffffffffffffffffffffffffffff1673ffffffffffffffffffffffffffffffffffffffff16815260200190815260200160002054101561043b576040517f08c379a000000000000000000000000000000000000000000000000000000000815260040161043290610a2c565b60405180910390fd5b6000600254600560003373ffffffffffffffffffffffffffffffffffffffff1673ffffffffffffffffffffffffffffffffffffffff1681526020019081526020016000205460015461048d9190610a7b565b6104979190610aaf565b600460003373ffffffffffffffffffffffffffffffffffffffff1673ffffffffffffffffffffffffffffffffffffffff168152602001908152602001600020546104e19190610af1565b90506000600460003373ffffffffffffffffffffffffffffffffffffffff1673ffffffffffffffffffffffffffffffffffffffff16815260200190815260200160002081905550600081600460003373ffffffffffffffffffffffffffffffffffffffff1673ffffffffffffffffffffffffffffffffffffffff16815260200190815260200160002060008282546105799190610af1565b9250508190559050807fb1481c7180ca26cea9b3483be55798e4c937410a88762287a3ff1f3bd2c538f260405160405180910390a28092505050919050565b60015481565b6000600154421115610605576040517f08c379a00000000000000000000000000000000000000000000000000000000081526004016105fc90610b71565b60405180910390fd5b600073ffffffffffffffffffffffffffffffffffffffff163373ffffffffffffffffffffffffffffffffffffffff1603610674576040517f08c379a000000000000000000000000000000000000000000000000000000000815260040161066b90610bdd565b60405180910390fd5b600034116106b7576040517f08c379a00000000000000000000000000000000000000000000000000000000081526004016106ae90610c49565b60405180910390fd5b42600560003373ffffffffffffffffffffffffffffffffffffffff1673ffffffffffffffffffffffffffffffffffffffff1681526020019081526020016000208190555034600460003373ffffffffffffffffffffffffffffffffffffffff1673ffffffffffffffffffffffffffffffffffffffff168152602001908152602001600020600082825461074a9190610af1565b925050819055503373ffffffffffffffffffffffffffffffffffffffff167f5e76fe01206de5aed1735ac76572b4de2e2e8ab70f1fd62af4a71ac786705647346040516107979190610835565b60405180910390a250565b60005481565b600047905090565b60025481565b60056020528060005260406000206000915090505481565b600360009054906101000a900473ffffffffffffffffffffffffffffffffffffffff1681565b600060015442106108085760009050610819565b426001546108169190610a7b565b90505b90565b6000819050919050565b61082f8161081c565b82525050565b600060208201905061084a6000830184610826565b92915050565b600080fd5b600073ffffffffffffffffffffffffffffffffffffffff82169050919050565b600061088082610855565b9050919050565b61089081610875565b811461089b57600080fd5b50565b6000813590506108ad81610887565b92915050565b6000602082840312156108c9576108c8610850565b5b60006108d78482850161089e565b91505092915050565b6108e98161081c565b81146108f457600080fd5b50565b600081359050610906816108e0565b92915050565b60006020828403121561092257610921610850565b5b6000610930848285016108f7565b91505092915050565b61094281610875565b82525050565b600060208201905061095d6000830184610939565b92915050565b600082825260208201905092915050565b7f7a65726f20616464726573732064657465637465640000000000000000000000600082015250565b60006109aa601583610963565b91506109b582610974565b602082019050919050565b600060208201905081810360008301526109d98161099d565b9050919050565b7f494e53554646494349454e542046554e44530000000000000000000000000000600082015250565b6000610a16601283610963565b9150610a21826109e0565b602082019050919050565b60006020820190508181036000830152610a4581610a09565b9050919050565b7f4e487b7100000000000000000000000000000000000000000000000000000000600052601160045260246000fd5b6000610a868261081c565b9150610a918361081c565b9250828203905081811115610aa957610aa8610a4c565b5b92915050565b6000610aba8261081c565b9150610ac58361081c565b9250828202610ad38161081c565b91508282048414831517610aea57610ae9610a4c565b5b5092915050565b6000610afc8261081c565b9150610b078361081c565b9250828201905080821115610b1f57610b1e610a4c565b5b92915050565b7f4e6f206d6f7265205374616b696e670000000000000000000000000000000000600082015250565b6000610b5b600f83610963565b9150610b6682610b25565b602082019050919050565b60006020820190508181036000830152610b8a81610b4e565b9050919050565b7f5a65726f20616464726573732064657465637465640000000000000000000000600082015250565b6000610bc7601583610963565b9150610bd282610b91565b602082019050919050565b60006020820190508181036000830152610bf681610bba565b9050919050565b7f7374616b6520736f6d6520616d6f756e74000000000000000000000000000000600082015250565b6000610c33601183610963565b9150610c3e82610bfd565b602082019050919050565b60006020820190508181036000830152610c6281610c26565b905091905056fea2646970667358221220c702d34639ddc6cbdb5500edb6c54ff68aa76c5ba528676259335c2642337b2664736f6c63430008180033",
  "linkReferences": {},
  "deployedLinkReferences": {}
}