{
  "_format": "hh-sol-artifact-1",
  "contractName": "StakeERC20",
  "sourceName": "contracts/stakeERC.sol",
  "abi": [
    {
      "inputs": [
        {
          "internalType": "address",
          "name": "_tokenAddress",
          "type": "address"
        },
        {
          "internalType": "uint256",
          "name": "_withdrawDeadline",
          "type": "uint256"
        }
      ],
      "stateMutability": "nonpayable",
      "type": "constructor"
    },
    {
      "inputs": [
        {
          "internalType": "address",
          "name": "target",
          "type": "address"
        }
      ],
      "name": "AddressEmptyCode",
      "type": "error"
    },
    {
      "inputs": [
        {
          "internalType": "address",
          "name": "account",
          "type": "address"
        }
      ],
      "name": "AddressInsufficientBalance",
      "type": "error"
    },
    {
      "inputs": [],
      "name": "FailedInnerCall",
      "type": "error"
    },
    {
      "inputs": [
        {
          "internalType": "address",
          "name": "token",
          "type": "address"
        }
      ],
      "name": "SafeERC20FailedOperation",
      "type": "error"
    },
    {
      "anonymous": false,
      "inputs": [
        {
          "indexed": true,
          "internalType": "address",
          "name": "addressFrom",
          "type": "address"
        },
        {
          "indexed": true,
          "internalType": "uint256",
          "name": "amount",
          "type": "uint256"
        }
      ],
      "name": "stakedSuccessfully",
      "type": "event"
    },
    {
      "inputs": [
        {
          "internalType": "address",
          "name": "_stakeHolder",
          "type": "address"
        }
      ],
      "name": "addStakeHolder",
      "outputs": [],
      "stateMutability": "nonpayable",
      "type": "function"
    },
    {
      "inputs": [],
      "name": "depositTime",
      "outputs": [
        {
          "internalType": "uint256",
          "name": "",
          "type": "uint256"
        }
      ],
      "stateMutability": "view",
      "type": "function"
    },
    {
      "inputs": [],
      "name": "getMyBalance",
      "outputs": [
        {
          "internalType": "uint256",
          "name": "",
          "type": "uint256"
        }
      ],
      "stateMutability": "view",
      "type": "function"
    },
    {
      "inputs": [
        {
          "internalType": "address",
          "name": "_address",
          "type": "address"
        }
      ],
      "name": "isStakeHolder",
      "outputs": [
        {
          "internalType": "bool",
          "name": "",
          "type": "bool"
        }
      ],
      "stateMutability": "view",
      "type": "function"
    },
    {
      "inputs": [],
      "name": "owner",
      "outputs": [
        {
          "internalType": "address",
          "name": "",
          "type": "address"
        }
      ],
      "stateMutability": "view",
      "type": "function"
    },
    {
      "inputs": [
        {
          "internalType": "address",
          "name": "_stakeHolder",
          "type": "address"
        }
      ],
      "name": "removeStakeHolder",
      "outputs": [],
      "stateMutability": "nonpayable",
      "type": "function"
    },
    {
      "inputs": [
        {
          "internalType": "uint256",
          "name": "",
          "type": "uint256"
        }
      ],
      "name": "stakeHolders",
      "outputs": [
        {
          "internalType": "address",
          "name": "",
          "type": "address"
        }
      ],
      "stateMutability": "view",
      "type": "function"
    },
    {
      "inputs": [],
      "name": "stakePeriod",
      "outputs": [
        {
          "internalType": "uint256",
          "name": "",
          "type": "uint256"
        }
      ],
      "stateMutability": "view",
      "type": "function"
    },
    {
      "inputs": [
        {
          "internalType": "uint256",
          "name": "_amount",
          "type": "uint256"
        }
      ],
      "name": "stakeToken",
      "outputs": [],
      "stateMutability": "nonpayable",
      "type": "function"
    },
    {
      "inputs": [],
      "name": "tokenAddress",
      "outputs": [
        {
          "internalType": "address",
          "name": "",
          "type": "address"
        }
      ],
      "stateMutability": "view",
      "type": "function"
    },
    {
      "inputs": [
        {
          "internalType": "uint256",
          "name": "_amount",
          "type": "uint256"
        }
      ],
      "name": "withdraw",
      "outputs": [],
      "stateMutability": "payable",
      "type": "function"
    },
    {
      "inputs": [],
      "name": "withdrawTime",
      "outputs": [
        {
          "internalType": "uint256",
          "name": "",
          "type": "uint256"
        }
      ],
      "stateMutability": "view",
      "type": "function"
    },
    {
      "inputs": [],
      "name": "withdrawalDeadline",
      "outputs": [
        {
          "internalType": "uint256",
          "name": "",
          "type": "uint256"
        }
      ],
      "stateMutability": "view",
      "type": "function"
    }
  ],
  "bytecode": "0x60806040523480156200001157600080fd5b5060405162001c7738038062001c7783398181016040528101906200003791906200018e565b42600481905550816000806101000a81548173ffffffffffffffffffffffffffffffffffffffff021916908373ffffffffffffffffffffffffffffffffffffffff160217905550603c816200008d919062000204565b426200009a91906200024f565b60038190555033600160006101000a81548173ffffffffffffffffffffffffffffffffffffffff021916908373ffffffffffffffffffffffffffffffffffffffff16021790555050506200028a565b600080fd5b600073ffffffffffffffffffffffffffffffffffffffff82169050919050565b60006200011b82620000ee565b9050919050565b6200012d816200010e565b81146200013957600080fd5b50565b6000815190506200014d8162000122565b92915050565b6000819050919050565b620001688162000153565b81146200017457600080fd5b50565b60008151905062000188816200015d565b92915050565b60008060408385031215620001a857620001a7620000e9565b5b6000620001b8858286016200013c565b9250506020620001cb8582860162000177565b9150509250929050565b7f4e487b7100000000000000000000000000000000000000000000000000000000600052601160045260246000fd5b6000620002118262000153565b91506200021e8362000153565b92508282026200022e8162000153565b91508282048414831517620002485762000247620001d5565b5b5092915050565b60006200025c8262000153565b9150620002698362000153565b9250828201905080821115620002845762000283620001d5565b5b92915050565b6119dd806200029a6000396000f3fe6080604052600436106100c25760003560e01c8063635121591161007f578063acad41a411610059578063acad41a414610249578063be31069714610286578063c1699a99146102b1578063cda6b847146102dc576100c2565b806363512159146101b65780638da5cb5b146101f35780639d76ea581461021e576100c2565b806311a76f37146100c75780632e1a7d4d146100f057806345cb3dde1461010c57806345f412b0146101375780634c738909146101605780635e8a626e1461018b575b600080fd5b3480156100d357600080fd5b506100ee60048036038101906100e9919061126e565b610305565b005b61010a600480360381019061010591906112d1565b61043f565b005b34801561011857600080fd5b50610121610574565b60405161012e919061130d565b60405180910390f35b34801561014357600080fd5b5061015e6004803603810190610159919061126e565b610631565b005b34801561016c57600080fd5b50610175610998565b604051610182919061130d565b60405180910390f35b34801561019757600080fd5b506101a06109df565b6040516101ad919061130d565b60405180910390f35b3480156101c257600080fd5b506101dd60048036038101906101d8919061126e565b6109e5565b6040516101ea9190611343565b60405180910390f35b3480156101ff57600080fd5b50610208610aac565b604051610215919061136d565b60405180910390f35b34801561022a57600080fd5b50610233610ad2565b604051610240919061136d565b60405180910390f35b34801561025557600080fd5b50610270600480360381019061026b91906112d1565b610af6565b60405161027d919061136d565b60405180910390f35b34801561029257600080fd5b5061029b610b35565b6040516102a8919061130d565b60405180910390f35b3480156102bd57600080fd5b506102c6610b3b565b6040516102d3919061130d565b60405180910390f35b3480156102e857600080fd5b5061030360048036038101906102fe91906112d1565b610b41565b005b80600073ffffffffffffffffffffffffffffffffffffffff168173ffffffffffffffffffffffffffffffffffffffff1603610375576040517f08c379a000000000000000000000000000000000000000000000000000000000815260040161036c906113e5565b60405180910390fd5b61037e826109e5565b61043b576005829080600181540180825580915050600190039060005260206000200160009091909190916101000a81548173ffffffffffffffffffffffffffffffffffffffff021916908373ffffffffffffffffffffffffffffffffffffffff16021790555060016005805490506103f79190611434565b600660008473ffffffffffffffffffffffffffffffffffffffff1673ffffffffffffffffffffffffffffffffffffffff168152602001908152602001600020819055505b5050565b60008111610482576040517f08c379a0000000000000000000000000000000000000000000000000000000008152600401610479906114b4565b60405180910390fd5b80600860003373ffffffffffffffffffffffffffffffffffffffff1673ffffffffffffffffffffffffffffffffffffffff168152602001908152602001600020541015610504576040517f08c379a00000000000000000000000000000000000000000000000000000000081526004016104fb90611520565b60405180910390fd5b600061050f82610e08565b90506000818361051f9190611540565b925082905061056f338260008054906101000a900473ffffffffffffffffffffffffffffffffffffffff1673ffffffffffffffffffffffffffffffffffffffff16610ebc9092919063ffffffff16565b505050565b6000600354603c600960003373ffffffffffffffffffffffffffffffffffffffff1673ffffffffffffffffffffffffffffffffffffffff168152602001908152602001600020546105c59190611574565b11156105d4576000905061062e565b603c600960003373ffffffffffffffffffffffffffffffffffffffff1673ffffffffffffffffffffffffffffffffffffffff168152602001908152602001600020546106209190611574565b4261062b9190611434565b90505b90565b3373ffffffffffffffffffffffffffffffffffffffff16600160009054906101000a900473ffffffffffffffffffffffffffffffffffffffff1673ffffffffffffffffffffffffffffffffffffffff16146106c1576040517f08c379a00000000000000000000000000000000000000000000000000000000081526004016106b890611602565b60405180910390fd5b600073ffffffffffffffffffffffffffffffffffffffff168173ffffffffffffffffffffffffffffffffffffffff1603610730576040517f08c379a0000000000000000000000000000000000000000000000000000000008152600401610727906113e5565b60405180910390fd5b600760008273ffffffffffffffffffffffffffffffffffffffff1673ffffffffffffffffffffffffffffffffffffffff16815260200190815260200160002060009054906101000a900460ff1615610995576000600660008373ffffffffffffffffffffffffffffffffffffffff1673ffffffffffffffffffffffffffffffffffffffff168152602001908152602001600020549050600560016005805490506107da9190611434565b815481106107eb576107ea611622565b5b9060005260206000200160009054906101000a900473ffffffffffffffffffffffffffffffffffffffff166005828154811061082a57610829611622565b5b9060005260206000200160006101000a81548173ffffffffffffffffffffffffffffffffffffffff021916908373ffffffffffffffffffffffffffffffffffffffff16021790555080600660006005848154811061088b5761088a611622565b5b9060005260206000200160009054906101000a900473ffffffffffffffffffffffffffffffffffffffff1673ffffffffffffffffffffffffffffffffffffffff1673ffffffffffffffffffffffffffffffffffffffff16815260200190815260200160002081905550600580548061090657610905611651565b5b6001900381819060005260206000200160006101000a81549073ffffffffffffffffffffffffffffffffffffffff021916905590556000600760008473ffffffffffffffffffffffffffffffffffffffff1673ffffffffffffffffffffffffffffffffffffffff16815260200190815260200160002060006101000a81548160ff021916908315150217905550505b50565b6000600860003373ffffffffffffffffffffffffffffffffffffffff1673ffffffffffffffffffffffffffffffffffffffff16815260200190815260200160002054905090565b60045481565b600081600073ffffffffffffffffffffffffffffffffffffffff168173ffffffffffffffffffffffffffffffffffffffff1603610a57576040517f08c379a0000000000000000000000000000000000000000000000000000000008152600401610a4e906113e5565b60405180910390fd5b600760008473ffffffffffffffffffffffffffffffffffffffff1673ffffffffffffffffffffffffffffffffffffffff16815260200190815260200160002060009054906101000a900460ff16915050919050565b600160009054906101000a900473ffffffffffffffffffffffffffffffffffffffff1681565b60008054906101000a900473ffffffffffffffffffffffffffffffffffffffff1681565b60058181548110610b0657600080fd5b906000526020600020016000915054906101000a900473ffffffffffffffffffffffffffffffffffffffff1681565b60035481565b60025481565b6000600354421115610b88576040517f08c379a0000000000000000000000000000000000000000000000000000000008152600401610b7f906116cc565b60405180910390fd5b60008211610bcb576040517f08c379a0000000000000000000000000000000000000000000000000000000008152600401610bc290611738565b60405180910390fd5b600073ffffffffffffffffffffffffffffffffffffffff163373ffffffffffffffffffffffffffffffffffffffff1603610c3a576040517f08c379a0000000000000000000000000000000000000000000000000000000008152600401610c31906117a4565b60405180910390fd5b60008060009054906101000a900473ffffffffffffffffffffffffffffffffffffffff1673ffffffffffffffffffffffffffffffffffffffff166370a08231336040518263ffffffff1660e01b8152600401610c96919061136d565b602060405180830381865afa158015610cb3573d6000803e3d6000fd5b505050506040513d601f19601f82011682018060405250810190610cd791906117d9565b905060008111610d1c576040517f08c379a0000000000000000000000000000000000000000000000000000000008152600401610d1390611520565b60405180910390fd5b610d6933308560008054906101000a900473ffffffffffffffffffffffffffffffffffffffff1673ffffffffffffffffffffffffffffffffffffffff16610f3b909392919063ffffffff16565b82600860003373ffffffffffffffffffffffffffffffffffffffff1673ffffffffffffffffffffffffffffffffffffffff1681526020019081526020016000206000828254610db89190611540565b92505081905550823373ffffffffffffffffffffffffffffffffffffffff167f33b782917fdc72600fd38a8e09e8ab3e492b9c005fbf38e4632b709ace7ae6ac60405160405180910390a3505050565b600080600960003373ffffffffffffffffffffffffffffffffffffffff1673ffffffffffffffffffffffffffffffffffffffff16815260200190815260200160002054600354610e589190611434565b9050600354811115610e6e576000915050610eb7565b60008184610e7c9190611835565b90506000606483610e8d9190611574565b838387610e9a9190611574565b610ea49190611574565b610eae9190611835565b90508093505050505b919050565b610f36838473ffffffffffffffffffffffffffffffffffffffff1663a9059cbb8585604051602401610eef929190611866565b604051602081830303815290604052915060e01b6020820180517bffffffffffffffffffffffffffffffffffffffffffffffffffffffff8381831617835250505050610fbd565b505050565b610fb7848573ffffffffffffffffffffffffffffffffffffffff166323b872dd868686604051602401610f709392919061188f565b604051602081830303815290604052915060e01b6020820180517bffffffffffffffffffffffffffffffffffffffffffffffffffffffff8381831617835250505050610fbd565b50505050565b6000610fe8828473ffffffffffffffffffffffffffffffffffffffff1661105490919063ffffffff16565b9050600081511415801561100d57508080602001905181019061100b91906118f2565b155b1561104f57826040517f5274afe7000000000000000000000000000000000000000000000000000000008152600401611046919061136d565b60405180910390fd5b505050565b60606110628383600061106a565b905092915050565b6060814710156110b157306040517fcd7860590000000000000000000000000000000000000000000000000000000081526004016110a8919061136d565b60405180910390fd5b6000808573ffffffffffffffffffffffffffffffffffffffff1684866040516110da9190611990565b60006040518083038185875af1925050503d8060008114611117576040519150601f19603f3d011682016040523d82523d6000602084013e61111c565b606091505b509150915061112c868383611137565b925050509392505050565b60608261114c57611147826111c6565b6111be565b60008251148015611174575060008473ffffffffffffffffffffffffffffffffffffffff163b145b156111b657836040517f9996b3150000000000000000000000000000000000000000000000000000000081526004016111ad919061136d565b60405180910390fd5b8190506111bf565b5b9392505050565b6000815111156111d95780518082602001fd5b6040517f1425ea4200000000000000000000000000000000000000000000000000000000815260040160405180910390fd5b600080fd5b600073ffffffffffffffffffffffffffffffffffffffff82169050919050565b600061123b82611210565b9050919050565b61124b81611230565b811461125657600080fd5b50565b60008135905061126881611242565b92915050565b6000602082840312156112845761128361120b565b5b600061129284828501611259565b91505092915050565b6000819050919050565b6112ae8161129b565b81146112b957600080fd5b50565b6000813590506112cb816112a5565b92915050565b6000602082840312156112e7576112e661120b565b5b60006112f5848285016112bc565b91505092915050565b6113078161129b565b82525050565b600060208201905061132260008301846112fe565b92915050565b60008115159050919050565b61133d81611328565b82525050565b60006020820190506113586000830184611334565b92915050565b61136781611230565b82525050565b6000602082019050611382600083018461135e565b92915050565b600082825260208201905092915050565b7f41646472657373207a65726f2064657465637465640000000000000000000000600082015250565b60006113cf601583611388565b91506113da82611399565b602082019050919050565b600060208201905081810360008301526113fe816113c2565b9050919050565b7f4e487b7100000000000000000000000000000000000000000000000000000000600052601160045260246000fd5b600061143f8261129b565b915061144a8361129b565b925082820390508181111561146257611461611405565b5b92915050565b7f43616e74207769746864726177207a65726f20746f6b656e7300000000000000600082015250565b600061149e601983611388565b91506114a982611468565b602082019050919050565b600060208201905081810360008301526114cd81611491565b9050919050565b7f494e53554646494349454e542046554e44530000000000000000000000000000600082015250565b600061150a601283611388565b9150611515826114d4565b602082019050919050565b60006020820190508181036000830152611539816114fd565b9050919050565b600061154b8261129b565b91506115568361129b565b925082820190508082111561156e5761156d611405565b5b92915050565b600061157f8261129b565b915061158a8361129b565b92508282026115988161129b565b915082820484148315176115af576115ae611405565b5b5092915050565b7f4f6e6c79206f776e657200000000000000000000000000000000000000000000600082015250565b60006115ec600a83611388565b91506115f7826115b6565b602082019050919050565b6000602082019050818103600083015261161b816115df565b9050919050565b7f4e487b7100000000000000000000000000000000000000000000000000000000600052603260045260246000fd5b7f4e487b7100000000000000000000000000000000000000000000000000000000600052603160045260246000fd5b7f4e6f206d6f7265205374616b696e670000000000000000000000000000000000600082015250565b60006116b6600f83611388565b91506116c182611680565b602082019050919050565b600060208201905081810360008301526116e5816116a9565b9050919050565b7f7374616b6520686967686572207468616e207a65726f00000000000000000000600082015250565b6000611722601683611388565b915061172d826116ec565b602082019050919050565b6000602082019050818103600083015261175181611715565b9050919050565b7f61646472657373207a65726f2064657465637465640000000000000000000000600082015250565b600061178e601583611388565b915061179982611758565b602082019050919050565b600060208201905081810360008301526117bd81611781565b9050919050565b6000815190506117d3816112a5565b92915050565b6000602082840312156117ef576117ee61120b565b5b60006117fd848285016117c4565b91505092915050565b7f4e487b7100000000000000000000000000000000000000000000000000000000600052601260045260246000fd5b60006118408261129b565b915061184b8361129b565b92508261185b5761185a611806565b5b828204905092915050565b600060408201905061187b600083018561135e565b61188860208301846112fe565b9392505050565b60006060820190506118a4600083018661135e565b6118b1602083018561135e565b6118be60408301846112fe565b949350505050565b6118cf81611328565b81146118da57600080fd5b50565b6000815190506118ec816118c6565b92915050565b6000602082840312156119085761190761120b565b5b6000611916848285016118dd565b91505092915050565b600081519050919050565b600081905092915050565b60005b83811015611953578082015181840152602081019050611938565b60008484015250505050565b600061196a8261191f565b611974818561192a565b9350611984818560208601611935565b80840191505092915050565b600061199c828461195f565b91508190509291505056fea26469706673582212208a6087e9b232e4007c6c4f9dcf7acac665386a494b6bb301d412d96dec88dea864736f6c63430008180033",
  "linkReferences": {},
  "deployedLinkReferences": {}
}